S00B00006164632E73726563F1
S11300000C942A000C943C000C943C000C943C008E
S11300100C943C000C943C000C943C000C943C006C
S11300200C943C000C943C000C943C000C943C005C
S11300300C943C000C943C000C943C000C943C004C
S11300400C943C000C943C000C943C000C943C003C
S11300500C943C0011241FBECFE5D4E0DEBFCDBF1D
S113006020E0A0E6B0E001C01D92A236B207E1F79D
S11300700E9453000C9465000C94000087B18066C4
S113008087B986B1876886B9089597B18770982B28
S113009097B9369A3699FECF84B18093600085B1C2
S11300A08093610008958FEF81BB81E082BB0E9441
S11300B03E00C1E080E00E944500809161008937E4
S11100C010F012BAF7CFC2BBF5CFF894FFCF01
S9030000FC
